{
  "_format": "hh-sol-artifact-1",
  "contractName": "Verifier",
  "sourceName": "circuits/zk/verifiers/Main.sol",
  "abi": [
    {
      "inputs": [
        {
          "internalType": "uint256[2]",
          "name": "a",
          "type": "uint256[2]"
        },
        {
          "internalType": "uint256[2][2]",
          "name": "b",
          "type": "uint256[2][2]"
        },
        {
          "internalType": "uint256[2]",
          "name": "c",
          "type": "uint256[2]"
        },
        {
          "internalType": "uint256[3]",
          "name": "input",
          "type": "uint256[3]"
        }
      ],
      "name": "verifyProof",
      "outputs": [
        {
          "internalType": "bool",
          "name": "r",
          "type": "bool"
        }
      ],
      "stateMutability": "view",
      "type": "function"
    }
  ],
  "bytecode": "0x608060405234801561001057600080fd5b506113bb806100206000396000f3fe608060405234801561001057600080fd5b506004361061002b5760003560e01c806311479fea14610030575b600080fd5b61018f600480360361016081101561004757600080fd5b8101908080604001906002806020026040519081016040528092919082600260200280828437600081840152601f19601f82011690508083019250505050505091929192908060800190600280602002604051908101604052809291906000905b828210156100fc578382604002016002806020026040519081016040528092919082600260200280828437600081840152601f19601f820116905080830192505050505050815260200190600101906100a8565b50505050919291929080604001906002806020026040519081016040528092919082600260200280828437600081840152601f19601f820116905080830192505050505050919291929080606001906003806020026040519081016040528092919082600360200280828437600081840152601f19601f82011690508083019250505050505091929192905050506101a9565b604051808215151515815260200191505060405180910390f35b60006101b3611243565b6040518060400160405280876000600281106101cb57fe5b60200201518152602001876001600281106101e257fe5b60200201518152508160000181905250604051806040016040528060405180604001604052808860006002811061021557fe5b602002015160006002811061022657fe5b602002015181526020018860006002811061023d57fe5b602002015160016002811061024e57fe5b6020020151815250815260200160405180604001604052808860016002811061027357fe5b602002015160006002811061028457fe5b602002015181526020018860016002811061029b57fe5b60200201516001600281106102ac57fe5b602002015181525081525081602001819052506040518060400160405280856000600281106102d757fe5b60200201518152602001856001600281106102ee57fe5b602002015181525081604001819052506060600367ffffffffffffffff8111801561031857600080fd5b506040519080825280602002602001820160405280156103475781602001602082028036833780820191505090505b50905060008090505b600381101561038f5784816003811061036557fe5b602002015182828151811061037657fe5b6020026020010181815250508080600101915050610350565b50600061039c82846103bc565b14156103ad576001925050506103b4565b6000925050505b949350505050565b6000807ff754b6b8444e0f93a4aa61f75bacb885df600a28e9a2e578ca8fa3bbe247a62d90506103ea611276565b6103f26105f0565b9050806080015151600186510114610472576040517f08c379a00000000000000000000000000000000000000000000000000000000081526004018080602001828103825260128152602001807f76657269666965722d6261642d696e707574000000000000000000000000000081525060200191505060405180910390fd5b61047a6112bd565b6040518060400160405280600081526020016000815250905060008090505b865181101561057957838782815181106104af57fe5b60200260200101511061052a576040517f08c379a000000000000000000000000000000000000000000000000000000000815260040180806020018281038252601f8152602001807f76657269666965722d6774652d736e61726b2d7363616c61722d6669656c640081525060200191505060405180910390fd5b61056a826105658560800151600185018151811061054457fe5b60200260200101518a858151811061055857fe5b6020026020010151610ac6565b610bc1565b91508080600101915050610499565b5061059c81836080015160008151811061058f57fe5b6020026020010151610bc1565b90506105d26105ae8660000151610cdb565b8660200151846000015185602001518587604001518b604001518960600151610d75565b6105e257600193505050506105ea565b600093505050505b92915050565b6105f8611276565b60405180604001604052807f2d4d9aa7e302d9df41749d5507949d05dbea33fbb16c643b22f599a2be6df2e281526020017f14bedd503c37ceb061d8ec60209fe345ce89830a19230301f076caff004d19268152508160000181905250604051806040016040528060405180604001604052807f0967032fcbf776d1afc985f88877f182d38480a653f2decaa9794cbc3bf3060c81526020017f0e187847ad4c798374d0d6732bf501847dd68bc0e071241e0213bc7fc13db7ab815250815260200160405180604001604052807f304cfbd1e08a704a99f5e847d93f8c3caafddec46b7a0d379da69a4d112346a781526020017f1739c1b1a457a8c7313123d24d2f9192f896b7c63eea05a9d57f06547ad0cec88152508152508160200181905250604051806040016040528060405180604001604052807f198e9393920d483a7260bfb731fb5d25f1aa493335a9e71297e485b7aef312c281526020017f1800deef121f1e76426a00665e5c4479674322d4f75edadd46debd5cd992f6ed815250815260200160405180604001604052807f090689d0585ff075ec9e99ad690c3395bc4b313370b38ef355acdadcd122975b81526020017f12c85ea5db8c6deb4aab71808dcb408fe3d1e7690c43d37b4ce6cc0166fa7daa8152508152508160400181905250604051806040016040528060405180604001604052807f198e9393920d483a7260bfb731fb5d25f1aa493335a9e71297e485b7aef312c281526020017f1800deef121f1e76426a00665e5c4479674322d4f75edadd46debd5cd992f6ed815250815260200160405180604001604052807f090689d0585ff075ec9e99ad690c3395bc4b313370b38ef355acdadcd122975b81526020017f12c85ea5db8c6deb4aab71808dcb408fe3d1e7690c43d37b4ce6cc0166fa7daa8152508152508160600181905250600467ffffffffffffffff811180156108bc57600080fd5b506040519080825280602002602001820160405280156108f657816020015b6108e36112bd565b8152602001906001900390816108db5790505b50816080018190525060405180604001604052807f1fc45c4bd57572e1076f2ce954b0b8cb8c4fcab16d4c48ad844d365da0bf03b881526020017f0a7ab5684ba93f2b413d86ec826da651cd1547196daab6a81fbe26f4fd6ea63d815250816080015160008151811061096557fe5b602002602001018190525060405180604001604052807f1bdf4a500d83d62fb71aa17739217b5bcbe0b897b10b8f469c509546a378257781526020017f0ac63b0a895467ed96270120b8f07d4d8f37ae3a6f75250affe1914e38b0ff3181525081608001516001815181106109d657fe5b602002602001018190525060405180604001604052807f24e99895d2eebb5449960bdcc9af6b5371f513fa3acb2711eb820cc1e8837ee881526020017f1199cbf54d5925aa8ea112eab83b3e9720ddc72339feb320ff015d0001e817958152508160800151600281518110610a4757fe5b602002602001018190525060405180604001604052807f2de9fb427497caf375836c86cc56726ea452b5379ba209043283884a4231b95881526020017f06b6cff9fa19f31312940a716f81c7349d8dc508b3ee12735ae4763f6d1459698152508160800151600381518110610ab857fe5b602002602001018190525090565b610ace6112bd565b610ad66112d7565b836000015181600060038110610ae857fe5b602002018181525050836020015181600160038110610b0357fe5b6020020181815250508281600260038110610b1a57fe5b602002018181525050600060608360808460076107d05a03fa90508060008114610b4357610b45565bfe5b5080610bb9576040517f08c379a00000000000000000000000000000000000000000000000000000000081526004018080602001828103825260128152602001807f70616972696e672d6d756c2d6661696c6564000000000000000000000000000081525060200191505060405180910390fd5b505092915050565b610bc96112bd565b610bd16112f9565b836000015181600060048110610be357fe5b602002018181525050836020015181600160048110610bfe57fe5b602002018181525050826000015181600260048110610c1957fe5b602002018181525050826020015181600360048110610c3457fe5b602002018181525050600060608360c08460066107d05a03fa90508060008114610c5d57610c5f565bfe5b5080610cd3576040517f08c379a00000000000000000000000000000000000000000000000000000000081526004018080602001828103825260128152602001807f70616972696e672d6164642d6661696c6564000000000000000000000000000081525060200191505060405180910390fd5b505092915050565b610ce36112bd565b60007f30644e72e131a029b85045b68181585d97816a916871ca8d3c208c16d87cfd47905060008360000151148015610d20575060008360200151145b15610d44576040518060400160405280600081526020016000815250915050610d70565b60405180604001604052808460000151815260200182856020015181610d6657fe5b0683038152509150505b919050565b60006060600467ffffffffffffffff81118015610d9157600080fd5b50604051908082528060200260200182016040528015610dcb57816020015b610db86112bd565b815260200190600190039081610db05790505b5090506060600467ffffffffffffffff81118015610de857600080fd5b50604051908082528060200260200182016040528015610e2257816020015b610e0f61131b565b815260200190600190039081610e075790505b5090508a82600081518110610e3357fe5b60200260200101819052508882600181518110610e4c57fe5b60200260200101819052508682600281518110610e6557fe5b60200260200101819052508482600381518110610e7e57fe5b60200260200101819052508981600081518110610e9757fe5b60200260200101819052508781600181518110610eb057fe5b60200260200101819052508581600281518110610ec957fe5b60200260200101819052508381600381518110610ee257fe5b6020026020010181905250610ef78282610f07565b9250505098975050505050505050565b60008151835114610f80576040517f08c379a00000000000000000000000000000000000000000000000000000000081526004018080602001828103825260168152602001807f70616972696e672d6c656e677468732d6661696c65640000000000000000000081525060200191505060405180910390fd5b600083519050600060068202905060608167ffffffffffffffff81118015610fa757600080fd5b50604051908082528060200260200182016040528015610fd65781602001602082028036833780820191505090505b50905060008090505b8381101561117c57868181518110610ff357fe5b60200260200101516000015182600060068402018151811061101157fe5b60200260200101818152505086818151811061102957fe5b60200260200101516020015182600160068402018151811061104757fe5b60200260200101818152505085818151811061105f57fe5b60200260200101516000015160006002811061107757fe5b602002015182600260068402018151811061108e57fe5b6020026020010181815250508581815181106110a657fe5b6020026020010151600001516001600281106110be57fe5b60200201518260036006840201815181106110d557fe5b6020026020010181815250508581815181106110ed57fe5b60200260200101516020015160006002811061110557fe5b602002015182600460068402018151811061111c57fe5b60200260200101818152505085818151811061113457fe5b60200260200101516020015160016002811061114c57fe5b602002015182600560068402018151811061116357fe5b6020026020010181815250508080600101915050610fdf565b50611185611341565b6000602082602086026020860160086107d05a03fa905080600081146111aa576111ac565bfe5b5080611220576040517f08c379a00000000000000000000000000000000000000000000000000000000081526004018080602001828103825260158152602001807f70616972696e672d6f70636f64652d6661696c6564000000000000000000000081525060200191505060405180910390fd5b60008260006001811061122f57fe5b602002015114159550505050505092915050565b60405180606001604052806112566112bd565b815260200161126361131b565b81526020016112706112bd565b81525090565b6040518060a001604052806112896112bd565b815260200161129661131b565b81526020016112a361131b565b81526020016112b061131b565b8152602001606081525090565b604051806040016040528060008152602001600081525090565b6040518060600160405280600390602082028036833780820191505090505090565b6040518060800160405280600490602082028036833780820191505090505090565b604051806040016040528061132e611363565b815260200161133b611363565b81525090565b6040518060200160405280600190602082028036833780820191505090505090565b604051806040016040528060029060208202803683378082019150509050509056fea2646970667358221220721d5d11364a33adbe6674193a3cc6599311ea4ebea83ad3434e789f329be18a64736f6c634300060b0033",
  "linkReferences": {},
  "deployedLinkReferences": {}
}